:060000000A128A11F52F1F
:1009240064008001840A0406031900340406932C2D
:10093400831603139F151F159F141F101F13831273
:1009440003139F131F17831603139F178312031395
:100954001F149F121F129F110800FD01F91FB92CCB
:10096400F809F909F80A0319F90AFD01FD0A7808DA
:10097400F0007908F100F2018E30FB007B08F300EF
:100984007D08FC007C08F4000A128A11D024700847
:10099400F8007108F9007208FA00080073080319D6
:1009A400D82C720871047004031DEB2C0030F00085
:1009B4000030F1000030F20008000130F500750845
:1009C400F30701300310F20CF10CF00CFF3E031D91
:1009D400E42CFE3072050319062DDF2C0130F500DE
:1009E4007508F3070130F007003003180130F107F0
:1009F400003003180130F20701300310F20CF10C3F
:100A0400F00CFF3E031DFF2CFF3072050319152D5A
:100A1400F02C0130F30201300310F00DF10DF20D52
:100A2400FF3E031D0E2DF11B1B2D02307302031814
:100A34000B2D7318232DFF30F0057F30F105FF30A7
:100A4400F2050310F30C7308F500F601F7011030FA
:100A54000310F50DF60DF70DFF3E031D2A2D750845
:100A6400F0047608F1047708F20474080319080006
:100A7400F21708007008F4007108F5007208F60017
:100A84000310750D760DF7007708FD007D08031D32
:100A9400542D0030F3000030F2000030F10000303B
:100AA400F00008007008F4007108F5007208F60000
:100AB40017300310F60CF50CF40CFF3E031D5B2DF0
:100AC4007408F7007708F800F117FF30F005FF30DD
:100AD400F1050030F2057008F9007108FA00720897
:100AE400FB00FC018E30FD02FD1F962D7D08803A2F
:100AF4008F3E0318862D0030F3000030F2000030E2
:100B0400F1000030F000080001300310FC0CFB0C75
:100B1400FA0CF90CFF3E031D872D0130F400740814
:100B2400FD070319B12D862D18307D02031CAE2D4F
:100B34000030F3000030F2000030F1000030F0002B
:100B440008000130F4000310F90DFA0DFB0DFC0D43
:100B5400F40BA52D0130FD027D08031DA32D78089B
:100B64000319BF2DF909FA09FB09FC09F90A03194C
:100B7400FA0A0319FB0A0319FC0A7C08F3007B0830
:100B8400F2007A08F1007908F00008000A128A11CC
:100B94009A240A128A118316031307170130860058
:100BA4001812831203139817831603139816181533
:100BB400103099000C3083120313C000C00BE02DD9
:100BC4000000831203131F151F19E62D1E08C00011
:100BD400C1014008DC004108DD005D08C1005C087B
:100BE400C0004008C100C0014008DC004108DD002D
:100BF400831603131E08831203135C07C0005D08E9
:100C040003185D0AC1004008DC004108DD00C03063
:100C1400B0007F30B1004430B2000030A000A030FA
:100C2400A1004030A2005D08F9005C08F8000A1237
:100C34008A11AF240A128A11780883120313A300BD
:100C44007908A4007A08A5000A128A1122270A1238
:100C54008A11831203132008B3002108B400220868
:100C6400B5000A128A116A260A128A118312031322
:100C74003008D7003108D8003208D90006140130F2
:100C8400DA000030DB0083160313981C5A2E8312FB
:100C940003135708F0005808F1005908F2000A122B
:100CA4008A113C250A128A117008831203139900D1
:100CB400023083120313C2000430C100B930C000F3
:100CC400C00B622EC10B622EC20B622E692EDC2D6C
:100CD400831203133308B6003408B7003508B8008C
:100CE4000310370D380DB9003908BE003E08031D46
:100CF400822E0030B0000030B1000030B200080095
:100D04003008B6003108B7003208B8000310370DB8
:100D1400380DB9003908BF003F08031D982E003074
:100D2400B0000030B1000030B20008000030BB0059
:100D34000030BC000030BD0089303F07B6003608E3
:100D4400BE023308B6003408B7003508B8001030C6
:100D54000310B80CB70CB60CFF3E031DAA2E3608C0
:100D6400B9003908BF003008B6003108B7003208AE
:100D7400B80010300310B80CB70CB60CFF3E031DBE
:100D8400BC2E3608B9003908BF068030B6003608D4
:100D9400BF05B417FF30B305FF30B4050030B50507
:100DA400B117FF30B005FF30B1050030B20518307F
:100DB400B6003608BA0001300310BB0DBC0DBD0DE2
:100DC400FF3E031DDE2E32083502031DEF2E3108CF
:100DD4003402031DEF2E30083302031CFC2E3008AE
:100DE400B3023108031C310FB4023208031C320A67
:100DF400B5023B1401300310B30DB40DB50DFF3E25
:100E0400031DFD2E0130BA02031DDD2E3B08F00048
:100E14003C08F1003D08F2003E08B6003608F30035
:100E24003F08B7003708F4000A128A11D02470086A
:100E340083120313B0007108B1007208B2000800F5
:100E4400831203132008A6002108A7002208A80083
:100E54000310270D280DA9002908AA002A08031D3C
:100E64003A2F0030A0000030A1000030A20008009A
:100E74002308A6002408A7002508A8000310270DAE
:100E8400280DA9002908AF002F08031D502F00309A
:100E9400A0000030A1000030A20008002F087B3E13
:100EA400A6002608AA072008A6002108A7002208F1
:100EB400A80010300310A80CA70CA60CFF3E031DBD
:100EC4005C2F2608A9002908AF002308A6002408DF
:100ED400A7002508A80010300310A80CA70CA60C26
:100EE400FF3E031D6E2F2608A9002908AF06803097
:100EF400A6002608AF05A117A417FF30A305FF30ED
:100F0400A4050030A5050030AB000030AC00003073
:100F1400AD000730A6002608AE00201C9F2F230832
:100F2400AB07240803110318240A031DAC07250882
:100F340003110318250A031DAD0701300310A20C89
:100F4400A10CA00CFF3E031DA02F01300310A30D24
:100F5400A40DA50DFF3E031DA82F0130AE02031DF5
:100F64008F2F0930A6002608AE00201CC72F2308A7
:100F7400AB07240803110318240A031DAC07250832
:100F840003110318250A031DAD0701300310A20C39
:100F9400A10CA00CFF3E031DC82F01300310AD0CA3
:100FA400AC0CAB0CFF3E031DD02F0130AE02031D71
:100FB400B72F2B08F0002C08F1002D08F2002A08A6
:100FC400A6002608F3002F08A7002708F4000A1239
:100FD4008A11D024700883120313A0007108A100A1
:100FE4007208A200080083134330840060300A12A0
:0C0FF4008A11922483010A128A11C82D70
:02400E003A3F37
:00000001FF
