:060000000A128A11122809
:10000800FE00030E83120313C0000408C1000A088F
:10001800C2007F08C3000A128A159D2F0A128A118E
:100028001528831603130A128A15FD230A128A114A
:10003800DB000A128A15FE230A128A11DC000A1252
:100048008A15FF230A128A11DD000A128A15002474
:100058000A128A11DE008313CB308400DB300A12C7
:100068008A15012483120313C801C901CA01CB01EF
:1000780083010A128A114028F03083160313860080
:1000880088018B170B108B15850118128312031327
:10009800981718168316031318158C160B1787173D
:1000A800103099000A128A158D240A128A110A1230
:1000B8008A153D270A128A110A128A1509240A127A
:1000C8008A111030831203139000851483120313CE
:1000D8008F018E010614053083160313C800C80B60
:1000E800732876288312031306100230831603132D
:1000F800CA000430C900B930C800C80B8128C90B30
:100108008128CA0B81288828831603134F08013ECB
:10011800A50050080318013E003EA6000A128A15E1
:10012800B5240A128A11831603132508AD00260880
:10013800AE002708AF00CB30AA008130AB003F30BB
:10014800AC000A128A1138240A128A118316031382
:100158002A08BA002B08BB002C08BC000A128A1116
:10016800C3250A128A11831603133B08D0003A08E4
:10017800CF000530A2000030A3004E0883120313FD
:10018800C500831603134D0883120313C40064309B
:10019800C6000030C7000A128A11CD270A128A1138
:1001A80083120313450883160313A5008312031350
:1001B800440883160313A4000A128A1583260A1218
:1001C8008A11831603132308CE002208CD00831258
:1001D8000313861F2029643083160313A2000030FE
:1001E800A3004E0883120313C500831603134D089A
:1001F80083120313C4002C30C6000130C7000A1252
:100208008A11CD270A128A1183120313450883160F
:100218000313A50083120313440883160313A400D1
:100228000A128A1583260A128A11831603132308D1
:10023800DE002208DD005829643083160313A2006B
:100248000030A3004E0883120313C500831603135E
:100258004D0883120313C4002C30C6000130C700B8
:100268000A128A11CD270A128A118312031345082C
:1002780083160313A500831203134408831603137C
:10028800A4000A128A1583260A128A1183160313F8
:100298002308DC002208DB004D084E04031D582902
:1002A8000230DB000030DC0083120313061F6129D3
:1002B8000A128A1548250A128A1183120313861E08
:1002C8007D292C3083160313DD000130DE00023057
:1002D800DB000030DC00013083120313C80000305B
:1002E800C900C401C40A00300A128A15E4240A129B
:1002F8008A11831603135B09C8005C09C900C80A80
:100308000319C90A4F084807CB0050080318500AB8
:100318004907CC004C08803AFF0080307F02031D5B
:1003280097291F304B02031C9C2983120313851441
:10033800831603134C08803AFF0080307F02031DA8
:10034800A7291F304B020318CA29831603134C0828
:10035800803AFF0080307F02031DB42914304B021D
:10036800031CCA298312031305140B3083160313C5
:10037800CA002630C9005D30C800C80BC129C90BA6
:10038800C129CA0BC129831203130510831603134D
:100398004C08803AFF0080307F02031DD5291530B4
:1003A8004B020318F829831603134C08803AFF0000
:1003B80080307F02031DE2290A304B02031CF82912
:1003C800831203130514063083160313CA0013306F
:1003D800C900AD30C800C80BEF29C90BEF29CA0BFB
:1003E800EF29831203130510831603134C08803A70
:1003F800FF0080307F02031D032A0B304B020318D5
:10040800272A831603134C08803AFF0080307F02A6
:10041800031D102A05304B02031C272A83120313DD
:100428000514023083160313CA000430C900B9301A
:10043800C800C80B1D2AC90B1D2ACA0B1D2A242A4D
:10044800831203130510831603134C08803AFF0028
:1004580080307F02031D322A06304B020318512ACE
:10046800831603134C08803AFF0080307F02031D77
:100478003F2A01304B02031C512A8312031305142F
:10048800823083160313C900DD30C800C80B4A2A1E
:10049800C90B4A2A83120313051083160313500845
:1004A800803AC8005C08803A4802031D5D2A5B0850
:1004B8004F02031C3C2B831603135E08803AC800C6
:1004C8005008803A4802031D6B2A4F085D02031C3E
:1004D8003C2B083083160313C8004808A0000130DD
:1004E8000A128A15D9250A128A1124308316031391
:1004F800C8004808AA008312031349088316031387
:10050800AC0083120313480883160313AB00D130E1
:100518000A128A1152230A128A11D1308312031344
:10052800C6000030C7000A128A15DE260A128A1190
:1005380083160313A001A00A02300A128A15D925CE
:100548000A128A11323083160313C8004808AA0019
:100558005E08AC005D08AB00D1300A128A11522344
:100568000A128A11D13083120313C6000030C70063
:100578000A128A15DE260A128A1108308316031316
:10058800C8004808A00002300A128A15D9250A12A4
:100598008A112B3083160313C8004808AA005C0888
:1005A800AC005B08AB00D1300A128A1152230A1240
:1005B8008A11D13083120313C6000030C7000A1213
:1005C8008A15DE260A128A110D3083160313C80015
:1005D8004808A00002300A128A15D9250A128A1181
:1005E800383083120313C6008030C7000A128A15F8
:1005F800DE260A128A1183160313A001A00A01300D
:100608000A128A15D9250A128A111D308316031376
:10061800C8004808AA005008AC004F08AB00D13009
:100628000A128A1152230A128A11D1308312031333
:10063800C6000030C7000A128A15DE260A128A117F
:100648000D3083160313C8004808A00001300A12B1
:100658008A15D9250A128A11383083120313C60065
:100668008030C7000A128A15DE260A128A116A2803
:1006780083160313A001A00A01300A128A15D9258E
:100688000A128A110B3083120313C6008030C70088
:100698000A128A15DE260A128A116A28831603139B
:1006A800B500AB30AD002D08B0000130AA07FF300F
:1006B8002A0784000A128A150A200A128A11AD0034
:1006C8002D08B60036080319332C253036060319D1
:1006D800792B3608AD00350884002D088313800077
:1006E8000130AD002D08B507592BB1010130AA071B
:1006F800FF302A0784000A128A150A200A128A1172
:10070800B600003A0319332C643A03198F2B0D3ABB
:1007180003198F2B592B3008840083130008B3006A
:10072800840A0008B4000230AD002D08B007B41FD9
:10073800A62B0330AD002D08B104B309B409B30AE0
:100748000319B40AB601B60A053036060319CD2BCB
:100758003608AD002D07013E84000A128A150A20CA
:100768000A128A11AE000A128A150A200A128A1180
:10077800AF002F083402031DC32B2E083302031CBD
:10078800CD2B0130AD002D08B60705303606031D08
:10079800AC2B310803390319DC2B2D30AD0035089B
:1007A80084002D08831380000130AD002D08B507A3
:1007B8003608AD002D08B200FF30AD002D08B20795
:1007C800320A0319592B0A30A4000030A500320858
:1007D800AD002D07013E84000A128A150A200A126C
:1007E8008A1183120313C4000A128A150A200A12F6
:1007F8008A11C50083160313340883120313C70034
:1008080083160313330883120313C6000A128A15CA
:100818002B260A128A118312031345088316031321
:10082800A70083120313440883160313A6000A12B1
:100838008A1514250A128A11831603132408303ED8
:10084800AE002E08B6003608AD00350884002D0825
:10085800831380000130AD002D08B507E02B350863
:100868008400831380010800831603132A08B0004C
:100878002B08B1002C08B2000310310D320DB30063
:100888003308B4003408031D502C0030AA0000308F
:10089800AB000030AC0008002D08B0002E08B100F5
:1008A8002F08B2000310310D320DB3003308B90020
:1008B8003908031D662C0030AA000030AB00003058
:1008C800AC00080039087B3EB0003008B4072A089D
:1008D800B0002B08B1002C08B20010300310B20C85
:1008E800B10CB00CFF3E031D722C3008B300330866
:1008F800B9002D08B0002E08B1002F08B200103042
:100908000310B20CB10CB00CFF3E031D842C300850
:10091800B3003308B9068030B0003008B905AB170A
:10092800AE17FF30AD05FF30AE050030AF05003023
:10093800B5000030B6000030B7000730B00030080E
:10094800B8002A1CB52C2D08B5072E08031103186A
:100958002E0A031DB6072F08031103182F0A031DBB
:10096800B70701300310AC0CAB0CAA0CFF3E031DFB
:10097800B62C01300310AD0DAE0DAF0DFF3E031DBB
:10098800BE2C0130B802031DA52C0930B000300878
:10099800B8002A1CDD2C2D08B5072E0803110318F2
:1009A8002E0A031DB6072F08031103182F0A031D6B
:1009B800B70701300310AC0CAB0CAA0CFF3E031DAB
:1009C800DE2C01300310B70CB60CB50CFF3E031D2E
:1009D800E62C0130B802031DCD2C3508A0003608DE
:1009E800A1003708A2003408B0003008A300390875
:1009F800B1003108A4000A128A11DF2683160313F6
:100A08002008AA002108AB002208AC0008008312C5
:100A180003132308A6002408A7002508A80003102C
:100A2800270D280DA9002908AE002E08031D232D27
:100A38000030A0000030A1000030A200080020080B
:100A4800A6002108A7002208A8000310270D280DDA
:100A5800A9002908AF002F08031D392D0030A00078
:100A68000030A1000030A20008000030AB000030C8
:100A7800AC000030AD0089302F07A6002608AE0272
:100A88002308A6002408A7002508A8001030031092
:100A9800A80CA70CA60CFF3E031D4B2D2608A90089
:100AA8002908AF002008A6002108A7002208A800EE
:100AB80010300310A80CA70CA60CFF3E031D5D2DDB
:100AC8002608A9002908AF068030A6002608AF0529
:100AD800A417FF30A305FF30A4050030A505A11712
:100AE800FF30A005FF30A1050030A2051830A60090
:100AF8002608AA0001300310AB0DAC0DAD0DFF3E6A
:100B0800031D7F2D22082502031D902D2108240294
:100B1800031D902D20082302031C9D2D2008A302ED
:100B28002108031C210FA4022208031C220AA50283
:100B38002B1401300310A30DA40DA50DFF3E031DBA
:100B48009E2D0130AA02031D7E2D2B08F0002C08D3
:100B5800F1002D08F2002E08A6002608F3002F0841
:100B6800A7002708F4000A128A1161277008831267
:100B78000313A0007108A1007208A20008008316E0
:100B880003133A08BE003B08BF003C08C00003102E
:100B98003F0D400DC1004108C7004708031DDD2D6A
:100BA8000030BD000030BC000030BB000030BA008F
:100BB80008003A08BE003B08BF003C08C0001730D8
:100BC8000310C00CBF0CBE0CFF3E031DE42D3E08F5
:100BD800C1004108C200BB17FF30BA05FF30BB0592
:100BE8000030BC053A08C3003B08C4003C08C500F7
:100BF800C6018E30C702C71F1F2E4708803A8F3E96
:100C080003180F2E0030BD000030BC000030BB00C0
:100C18000030BA00080001300310C60CC50CC40C23
:100C2800C30CFF3E031D102E0130BE003E08C7074F
:100C380003193A2E0F2E18304702031C372E0030A6
:100C4800BD000030BC000030BB000030BA00080016
:100C58000130BE000310C30DC40DC50DC60DBE0B7B
:100C68002E2E0130C7024708031D2C2E42080319F7
:100C7800482EC309C409C509C609C30A0319C40A09
:100C88000319C50A0319C60A4608BD004508BC0071
:100C98004408BB004308BA00080083120313300855
:100CA800B4003108B5003208B6000310350D360D12
:100CB800B7003708BD003D08031D6B2E0030B30098
:100CC8000030B2000030B1000030B0000800300839
:100CD800B4003108B5003208B60017300310B60C5E
:100CE800B50CB40CFF3E031D722E3408B70037084C
:100CF800B800B117FF30B005FF30B1050030B205BC
:100D08003008B9003108BA003208BB00BC018E3087
:100D1800BD02BD1FAD2E3D08803A8F3E03189D2EA3
:100D28000030B3000030B2000030B1000030B00035
:100D3800080001300310BC0CBB0CBA0CB90CFF3E08
:100D4800031D9E2E0130B4003408BD070319C82EB8
:100D58009D2E18303D02031CC52E0030B300003014
:100D6800B2000030B1000030B00008000130B4001B
:100D78000310B90DBA0DBB0DBC0DB40BBC2E013060
:100D8800BD023D08031DBA2E38080319D62EB9092D
:100D9800BA09BB09BC09B90A0319BA0A0319BB0A7B
:100DA8000319BC0A3C08B3003B08B2003A08B1007A
:100DB8003908B00008008316031323080319E92E25
:100DC800220821042004031D002F0030A000003059
:100DD800A1000030A2000800013083120313C400F0
:100DE800440883160313A30701300310A20CA10CB7
:100DF800A00CFF3E031DF92EFE30220503191F2FFC
:100E0800F02E013083120313C40044088316031321
:100E1800A3070130A007003003180130A1070030F4
:100E280003180130A20701300310A20CA10CA00C7A
:100E3800FF3E031D182FFF30220503192E2F052F03
:100E48000130A30201300310A00DA10DA20DFF3E39
:100E5800031D272FA11B342F023023020318242F30
:100E680023183C2FFF30A0057F30A105FF30A205D5
:100E78000310A30C230883120313C400C501C60181
:100E880010300310C40DC50DC60DFF3E031D452FC0
:100E9800440883160313A00483120313450883161A
:100EA8000313A10483120313460883160313A20431
:100EB800240803190800A217080073080319692FEA
:100EC800720871047004031D7C2F0030F00000309C
:100ED800F1000030F20008000130F5007508F30752
:100EE80001300310F20CF10CF00CFF3E031D752FBE
:100EF800FE3072050319972F702F0130F500750821
:100F0800F3070130F007003003180130F107003013
:100F180003180130F20701300310F20CF10CF00C49
:100F2800FF3E031D902FFF3072050319A62F812F56
:100F38000130F30201300310F00DF10DF20DFF3E08
:100F4800031D9F2FF11BAC2F0230730203189C2F37
:100F58007318B42FFF30F0057F30F105FF30F2052C
:100F68000310F30C7308F500F601F70110300310B5
:100F7800F50DF60DF70DFF3E031DBB2F7508F004A8
:100F88007608F1047708F204740803190800F217C8
:100F9800080083160313A001A1018312441CE02F4B
:100FA800460883160313A0070318A10A8312031324
:100FB800470883160313A107013083120310C60DD7
:100FC800C70DFF3E031DE22F01300310C50CC40CF2
:100FD800FF3E031DE92F44084504031DD12F831646
:100FE8000313210883120313C50083160313200873
:100FF80083120313C4000800FF1B0A2883137F18F9
:1010080083170008840A0319FF0A080008308A00B9
:101018000408840A82070034013400340A34003496
:1010280064340034E83403341034273446347534D7
:101038006534723461342034643465342034523475
:1010480061346E3467346F342034203420340034F3
:1010580044343D342534643420342034003452344C
:101068003D342534643420342034003459343D343C
:101078002534643420342034003458343D34253445
:101088006434203400345B3463346D345D340034AC
:1017FA00023400342C34013464008001840A040663
:10180A00031900340406022C00300A128A152C240B
:10181A000A128A1501300A128A152C24080083122A
:10182A000313C400441C1B2C08161C2C0812C41CCD
:10183A00202C8816212C8812441D252C0817262CAA
:10184A000813C41D2A2C881708008813080083125D
:10185A000313C700081147080A128A1514240A122A
:10186A008A158312031388150B3083120313C600DB
:10187A006130C500C50B3F2CC60B3F2C442C83128C
:10188A00031388110800FD01F91F522CF809F90900
:10189A00F80A0319F90AFD01FD0A7808F000790827
:1018AA00F100F2018E30FB007B08F3007D08FC009A
:1018BA007C08F4000A128A1161277008F80071087E
:1018CA00F9007208FA00080083120313C5006F2C8E
:1018DA00831203136400831603178C186D2C83126A
:1018EA0003134508831203178D003F308312031335
:1018FA00C4004408831603178C050C1403100C1833
:10190A000314003003180130831203170C0808006F
:10191A00831603138E18972C013083120313CA00FF
:10192A000030CB00831603138E180E18A22C013038
:10193A0083120313CA000030CB00831603138E18D8
:10194A000E1CAD2C013083120313CA000030CB00E9
:10195A00831603138E140E140A128A1548250800DA
:10196A0083120313C70183160313A61FC52CA509E7
:10197A00A609A50A0319A60A83120313C701C70AEF
:10198A00831603132508A0002608A100A2018E30A1
:10199A00A8002808A3008312031347088316031319
:1019AA00A9002908A4000A128A11DF268316031344
:1019BA002008A5002108A6002208A7000800831213
:1019CA000313C600831603178C18E72C831203131C
:1019DA004608831203178D008312031344088312E7
:1019EA0003178C003F3083120313C5004508831682
:1019FA0003178C058312031303108B1B03148B1319
:101A0A00831603170C1555308D00AA308D008C14DF
:101A1A000C1183120313031C08008B17080083168A
:101A2A000313240825040319432DA901A90AA51B98
:101A3A002A2D01300310A40DA50DFF3E031D1F2DF5
:101A4A000130A8002808A9071C2D25082702031D14
:101A5A00302D24082602031C382D2408A602250846
:101A6A00031CA703A70201300310A50CA40CFF3E18
:101A7A00031D392D0130A902031D2A2D2708A500AF
:101A8A002608A400080083120313061F822D0030C3
:101A9A000A128A1569240A128A1583160313A000EA
:101AAA00A101200883120313C80083160313210817
:101ABA0083120313C900831603178C18602D83122F
:101ACA0003134A034B04031D722D4808013EC80044
:101ADA0049080318013E003EC900CA01CB01480863
:101AEA0083160313A000200883120313C4000030D6
:101AFA000A128A15E4240A128A1583120313061B92
:101B0A000800C40100300A128A15E424080083166A
:101B1A000313A20022080F3983120313C5004508D4
:101B2A0083160313A0002208F03983120313C50099
:101B3A00450883160313A10083120313081583169D
:101B4A000313210883120313C50004300310C50CC4
:101B5A00FF3E031DAB2D45080A128A1514240A12EA
:101B6A008A15831203138815193083120313C500CB
:101B7A00C50BBD2DC02D83120313881183160313C1
:101B8A0020080A128A1514240A128A1583120313CA
:101B9A008815193083120313C500C50BD22DD52D14
:101BAA00831203138811080083160313A300230367
:101BBA00031D022E20087F3EA1002108A600260848
:101BCA00A10004300310A10CFF3E031DE72D2108DC
:101BDA00A2002208A40026080F39A1002108A500A6
:101BEA0024080A128A152C240A128A15831603134A
:101BFA0025080A128A152C240800023083160313BA
:101C0A002306031D08002008BF3EA1002108A600E4
:101C1A002608A10004300310A10CFF3E031D102E5C
:101C2A002108A2002208A40026080F39A1002108D1
:101C3A00A50024080A128A152C240A128A1583166A
:101C4A00031325080A128A152C2408008316031385
:101C5A00A201A30183120313440845040319762E33
:101C6A0083160313A101A10A83120313C51B4C2E69
:101C7A00013083120310C40DC50DFF3E031D3F2E14
:101C8A00013083160313A0002008A107392E013062
:101C9A00831603130310A20DA30DFF3E031D4F2E3F
:101CAA008312031345084702031D5D2E44084602AA
:101CBA00031C682E4408C6024508031CC703C70252
:101CCA00831603132214013083120310C50CC40CAB
:101CDA00FF3E031D6A2E013083160313A102031D62
:101CEA004C2E83160313230883120313C50083168D
:101CFA000313220883120313C40008008316031374
:101D0A00A801A31F8F2EA209A309A20A0319A30AD5
:101D1A00A801A80AA51F9A2EA409A509A40A0319AD
:101D2A00A50A0130A6002608A806A901AA012208C8
:101D3A0023040319D12EA701A70AA31BB02E013031
:101D4A000310A20DA30DFF3E031DA52E0130A60010
:101D5A002608A707A22E01300310A90DAA0DFF3EDF
:101D6A00031DB12E23082502031DBD2E22082402BD
:101D7A00031CC62E2208A4022308031CA503A502DD
:101D8A00291401300310A30CA20CFF3E031DC72E19
:101D9A000130A702031DB02E28080319D92EA9095C
:101DAA00AA09A90A0319AA0A2A08A3002908A2004B
:101DBA00080083160313A601A7012608831203133A
:101DCA00460783160313A4008312031347088316D6
:101DDA000313A3000318A30AA61BA3038316031362
:101DEA002308A500250883120313FF008316031393
:101DFA0024088400831203130A128A1500200A1287
:101E0A008A15003A03190800831603132608831259
:101E1A000313460783160313A40083120313470808
:101E2A0083160313A3000318A30AA61BA30383168E
:101E3A0003132308A500250883120313FF00831642
:101E4A00031324088400831203130A128A1500203C
:101E5A000A128A150A128A158C250A128A15013065
:101E6A0083160313A6070318A70A0030A707E22E52
:101E7A0000300A128A1514240A128A15343083167D
:101E8A000313A100F130A000A00B492FA10B492F89
:101E9A0003300A128A152C240A128A150D30831669
:101EAA000313A100FB30A000A00B592FA10B592F3F
:101EBA0003300A128A152C240A128A151D30831639
:101ECA000313A1009030A000A00B692FA10B692F6A
:101EDA00000003300A128A152C240A128A150230CD
:101EEA000A128A152C240A128A1502300A128A1535
:101EFA002C240A128A1508300A128A152C240A126E
:101F0A008A1500300A128A152C240A128A150C30F6
:101F1A000A128A152C240A128A1500300A128A1506
:101F2A002C240A128A1506300A128A152C24080053
:101F3A000B1CE32F8B11061EA32F1014061AE22F77
:101F4A0010100F08BE00BF013E08BF00BE013E08C8
:101F5A000E04F8003F08F9000A128A1548240A12EA
:101F6A008A15780883120313A3007908A4007A0853
:101F7A00A5004830A0006B30A1004230A2000A122E
:101F8A008A110B250A128A15831203132008B0003E
:101F9A002108B1002208B2000A128A1151260A1237
:101FAA008A1583120313310883160313D000831290
:101FBA000313300883160313CF000B108B158312FB
:101FCA008C1EF42F1A08BE00BF013E0883160313A5
:101FDA00CD00831203133F0883160313CE00831226
:101FEA004308FF0042088A0041088400400E83002B
:061FFA00FE0E7E0E090040
:02400E00723FFF
:00000001FF
